{
  "_format": "hh-sol-artifact-1",
  "contractName": "BorrowYourCar",
  "sourceName": "contracts/BorrowYourCar.sol",
  "abi": [
    {
      "inputs": [],
      "stateMutability": "nonpayable",
      "type": "constructor"
    },
    {
      "inputs": [
        {
          "internalType": "address",
          "name": "sender",
          "type": "address"
        },
        {
          "internalType": "uint256",
          "name": "tokenId",
          "type": "uint256"
        },
        {
          "internalType": "address",
          "name": "owner",
          "type": "address"
        }
      ],
      "name": "ERC721IncorrectOwner",
      "type": "error"
    },
    {
      "inputs": [
        {
          "internalType": "address",
          "name": "operator",
          "type": "address"
        },
        {
          "internalType": "uint256",
          "name": "tokenId",
          "type": "uint256"
        }
      ],
      "name": "ERC721InsufficientApproval",
      "type": "error"
    },
    {
      "inputs": [
        {
          "internalType": "address",
          "name": "approver",
          "type": "address"
        }
      ],
      "name": "ERC721InvalidApprover",
      "type": "error"
    },
    {
      "inputs": [
        {
          "internalType": "address",
          "name": "operator",
          "type": "address"
        }
      ],
      "name": "ERC721InvalidOperator",
      "type": "error"
    },
    {
      "inputs": [
        {
          "internalType": "address",
          "name": "owner",
          "type": "address"
        }
      ],
      "name": "ERC721InvalidOwner",
      "type": "error"
    },
    {
      "inputs": [
        {
          "internalType": "address",
          "name": "receiver",
          "type": "address"
        }
      ],
      "name": "ERC721InvalidReceiver",
      "type": "error"
    },
    {
      "inputs": [
        {
          "internalType": "address",
          "name": "sender",
          "type": "address"
        }
      ],
      "name": "ERC721InvalidSender",
      "type": "error"
    },
    {
      "inputs": [
        {
          "internalType": "uint256",
          "name": "tokenId",
          "type": "uint256"
        }
      ],
      "name": "ERC721NonexistentToken",
      "type": "error"
    },
    {
      "anonymous": false,
      "inputs": [
        {
          "indexed": true,
          "internalType": "address",
          "name": "owner",
          "type": "address"
        },
        {
          "indexed": true,
          "internalType": "address",
          "name": "approved",
          "type": "address"
        },
        {
          "indexed": true,
          "internalType": "uint256",
          "name": "tokenId",
          "type": "uint256"
        }
      ],
      "name": "Approval",
      "type": "event"
    },
    {
      "anonymous": false,
      "inputs": [
        {
          "indexed": true,
          "internalType": "address",
          "name": "owner",
          "type": "address"
        },
        {
          "indexed": true,
          "internalType": "address",
          "name": "operator",
          "type": "address"
        },
        {
          "indexed": false,
          "internalType": "bool",
          "name": "approved",
          "type": "bool"
        }
      ],
      "name": "ApprovalForAll",
      "type": "event"
    },
    {
      "anonymous": false,
      "inputs": [
        {
          "indexed": false,
          "internalType": "uint256",
          "name": "carTokenId",
          "type": "uint256"
        },
        {
          "indexed": false,
          "internalType": "address",
          "name": "borrower",
          "type": "address"
        },
        {
          "indexed": false,
          "internalType": "uint256",
          "name": "startTime",
          "type": "uint256"
        },
        {
          "indexed": false,
          "internalType": "uint256",
          "name": "duration",
          "type": "uint256"
        }
      ],
      "name": "CarBorrowed",
      "type": "event"
    },
    {
      "anonymous": false,
      "inputs": [
        {
          "indexed": true,
          "internalType": "address",
          "name": "from",
          "type": "address"
        },
        {
          "indexed": true,
          "internalType": "address",
          "name": "to",
          "type": "address"
        },
        {
          "indexed": true,
          "internalType": "uint256",
          "name": "tokenId",
          "type": "uint256"
        }
      ],
      "name": "Transfer",
      "type": "event"
    },
    {
      "inputs": [
        {
          "internalType": "address",
          "name": "to",
          "type": "address"
        },
        {
          "internalType": "uint256",
          "name": "tokenId",
          "type": "uint256"
        }
      ],
      "name": "approve",
      "outputs": [],
      "stateMutability": "nonpayable",
      "type": "function"
    },
    {
      "inputs": [
        {
          "internalType": "address",
          "name": "owner",
          "type": "address"
        }
      ],
      "name": "balanceOf",
      "outputs": [
        {
          "internalType": "uint256",
          "name": "",
          "type": "uint256"
        }
      ],
      "stateMutability": "view",
      "type": "function"
    },
    {
      "inputs": [
        {
          "internalType": "uint256",
          "name": "carTokenId",
          "type": "uint256"
        },
        {
          "internalType": "uint256",
          "name": "duration",
          "type": "uint256"
        }
      ],
      "name": "borrowCar",
      "outputs": [],
      "stateMutability": "payable",
      "type": "function"
    },
    {
      "inputs": [],
      "name": "borrowPay",
      "outputs": [
        {
          "internalType": "contract BorrowERC20",
          "name": "",
          "type": "address"
        }
      ],
      "stateMutability": "view",
      "type": "function"
    },
    {
      "inputs": [
        {
          "internalType": "uint256",
          "name": "",
          "type": "uint256"
        }
      ],
      "name": "cars",
      "outputs": [
        {
          "internalType": "address",
          "name": "owner",
          "type": "address"
        },
        {
          "internalType": "address",
          "name": "borrower",
          "type": "address"
        },
        {
          "internalType": "uint256",
          "name": "borrowUntil",
          "type": "uint256"
        }
      ],
      "stateMutability": "view",
      "type": "function"
    },
    {
      "inputs": [
        {
          "internalType": "uint256",
          "name": "tokenId",
          "type": "uint256"
        }
      ],
      "name": "getApproved",
      "outputs": [
        {
          "internalType": "address",
          "name": "",
          "type": "address"
        }
      ],
      "stateMutability": "view",
      "type": "function"
    },
    {
      "inputs": [
        {
          "internalType": "uint256",
          "name": "carTokenId",
          "type": "uint256"
        }
      ],
      "name": "getCarInfo",
      "outputs": [
        {
          "internalType": "address",
          "name": "owner",
          "type": "address"
        },
        {
          "internalType": "address",
          "name": "borrower",
          "type": "address"
        },
        {
          "internalType": "uint256",
          "name": "borrowUntil",
          "type": "uint256"
        }
      ],
      "stateMutability": "view",
      "type": "function"
    },
    {
      "inputs": [],
      "name": "getFreeCar",
      "outputs": [
        {
          "components": [
            {
              "internalType": "address",
              "name": "owner",
              "type": "address"
            },
            {
              "internalType": "address",
              "name": "borrower",
              "type": "address"
            },
            {
              "internalType": "uint256",
              "name": "borrowUntil",
              "type": "uint256"
            }
          ],
          "internalType": "struct BorrowYourCar.Car[]",
          "name": "",
          "type": "tuple[]"
        }
      ],
      "stateMutability": "view",
      "type": "function"
    },
    {
      "inputs": [],
      "name": "getUserCars",
      "outputs": [
        {
          "internalType": "uint256[]",
          "name": "",
          "type": "uint256[]"
        }
      ],
      "stateMutability": "view",
      "type": "function"
    },
    {
      "inputs": [
        {
          "internalType": "address",
          "name": "owner",
          "type": "address"
        },
        {
          "internalType": "address",
          "name": "operator",
          "type": "address"
        }
      ],
      "name": "isApprovedForAll",
      "outputs": [
        {
          "internalType": "bool",
          "name": "",
          "type": "bool"
        }
      ],
      "stateMutability": "view",
      "type": "function"
    },
    {
      "inputs": [],
      "name": "length",
      "outputs": [
        {
          "internalType": "uint256",
          "name": "",
          "type": "uint256"
        }
      ],
      "stateMutability": "view",
      "type": "function"
    },
    {
      "inputs": [],
      "name": "manager",
      "outputs": [
        {
          "internalType": "address",
          "name": "",
          "type": "address"
        }
      ],
      "stateMutability": "view",
      "type": "function"
    },
    {
      "inputs": [],
      "name": "mintCar",
      "outputs": [],
      "stateMutability": "nonpayable",
      "type": "function"
    },
    {
      "inputs": [],
      "name": "name",
      "outputs": [
        {
          "internalType": "string",
          "name": "",
          "type": "string"
        }
      ],
      "stateMutability": "view",
      "type": "function"
    },
    {
      "inputs": [
        {
          "internalType": "uint256",
          "name": "tokenId",
          "type": "uint256"
        }
      ],
      "name": "ownerOf",
      "outputs": [
        {
          "internalType": "address",
          "name": "",
          "type": "address"
        }
      ],
      "stateMutability": "view",
      "type": "function"
    },
    {
      "inputs": [
        {
          "internalType": "uint256",
          "name": "carTokenId",
          "type": "uint256"
        }
      ],
      "name": "returnCar",
      "outputs": [],
      "stateMutability": "nonpayable",
      "type": "function"
    },
    {
      "inputs": [
        {
          "internalType": "address",
          "name": "from",
          "type": "address"
        },
        {
          "internalType": "address",
          "name": "to",
          "type": "address"
        },
        {
          "internalType": "uint256",
          "name": "tokenId",
          "type": "uint256"
        }
      ],
      "name": "safeTransferFrom",
      "outputs": [],
      "stateMutability": "nonpayable",
      "type": "function"
    },
    {
      "inputs": [
        {
          "internalType": "address",
          "name": "from",
          "type": "address"
        },
        {
          "internalType": "address",
          "name": "to",
          "type": "address"
        },
        {
          "internalType": "uint256",
          "name": "tokenId",
          "type": "uint256"
        },
        {
          "internalType": "bytes",
          "name": "data",
          "type": "bytes"
        }
      ],
      "name": "safeTransferFrom",
      "outputs": [],
      "stateMutability": "nonpayable",
      "type": "function"
    },
    {
      "inputs": [
        {
          "internalType": "address",
          "name": "operator",
          "type": "address"
        },
        {
          "internalType": "bool",
          "name": "approved",
          "type": "bool"
        }
      ],
      "name": "setApprovalForAll",
      "outputs": [],
      "stateMutability": "nonpayable",
      "type": "function"
    },
    {
      "inputs": [
        {
          "internalType": "bytes4",
          "name": "interfaceId",
          "type": "bytes4"
        }
      ],
      "name": "supportsInterface",
      "outputs": [
        {
          "internalType": "bool",
          "name": "",
          "type": "bool"
        }
      ],
      "stateMutability": "view",
      "type": "function"
    },
    {
      "inputs": [],
      "name": "symbol",
      "outputs": [
        {
          "internalType": "string",
          "name": "",
          "type": "string"
        }
      ],
      "stateMutability": "view",
      "type": "function"
    },
    {
      "inputs": [
        {
          "internalType": "uint256",
          "name": "tokenId",
          "type": "uint256"
        }
      ],
      "name": "tokenURI",
      "outputs": [
        {
          "internalType": "string",
          "name": "",
          "type": "string"
        }
      ],
      "stateMutability": "view",
      "type": "function"
    },
    {
      "inputs": [
        {
          "internalType": "address",
          "name": "from",
          "type": "address"
        },
        {
          "internalType": "address",
          "name": "to",
          "type": "address"
        },
        {
          "internalType": "uint256",
          "name": "tokenId",
          "type": "uint256"
        }
      ],
      "name": "transferFrom",
      "outputs": [],
      "stateMutability": "nonpayable",
      "type": "function"
    },
    {
      "inputs": [
        {
          "internalType": "address",
          "name": "",
          "type": "address"
        },
        {
          "internalType": "uint256",
          "name": "",
          "type": "uint256"
        }
      ],
      "name": "userCars",
      "outputs": [
        {
          "internalType": "uint256",
          "name": "",
          "type": "uint256"
        }
      ],
      "stateMutability": "view",
      "type": "function"
    }
  ],
  "bytecode": "0x608060405260006007553480156200001657600080fd5b506040518060400160405280600d81526020017f426f72726f77596f7572436172000000000000000000000000000000000000008152506040518060400160405280600381526020017f42594300000000000000000000000000000000000000000000000000000000008152508160009081620000949190620003ef565b508060019081620000a69190620003ef565b50505033600660006101000a81548173ffffffffffffffffffffffffffffffffffffffff021916908373ffffffffffffffffffffffffffffffffffffffff160217905550604051620000f89062000167565b620001039062000587565b604051809103906000f08015801562000120573d6000803e3d6000fd5b50600860006101000a81548173ffffffffffffffffffffffffffffffffffffffff021916908373ffffffffffffffffffffffffffffffffffffffff160217905550620005be565b61161c80620037dd83390190565b600081519050919050565b7f4e487b7100000000000000000000000000000000000000000000000000000000600052604160045260246000fd5b7f4e487b7100000000000000000000000000000000000000000000000000000000600052602260045260246000fd5b60006002820490506001821680620001f757607f821691505b6020821081036200020d576200020c620001af565b5b50919050565b60008190508160005260206000209050919050565b60006020601f8301049050919050565b600082821b905092915050565b600060088302620002777fffffffffffffffffffffffffffffffffffffffffffffffffffffffffffffffff8262000238565b62000283868362000238565b95508019841693508086168417925050509392505050565b6000819050919050565b6000819050919050565b6000620002d0620002ca620002c4846200029b565b620002a5565b6200029b565b9050919050565b6000819050919050565b620002ec83620002af565b62000304620002fb82620002d7565b84845462000245565b825550505050565b600090565b6200031b6200030c565b62000328818484620002e1565b505050565b5b8181101562000350576200034460008262000311565b6001810190506200032e565b5050565b601f8211156200039f57620003698162000213565b620003748462000228565b8101602085101562000384578190505b6200039c620003938562000228565b8301826200032d565b50505b505050565b600082821c905092915050565b6000620003c460001984600802620003a4565b1980831691505092915050565b6000620003df8383620003b1565b9150826002028217905092915050565b620003fa8262000175565b67ffffffffffffffff81111562000416576200041562000180565b5b620004228254620001de565b6200042f82828562000354565b600060209050601f83116001811462000467576000841562000452578287015190505b6200045e8582620003d1565b865550620004ce565b601f198416620004778662000213565b60005b82811015620004a1578489015182556001820191506020850194506020810190506200047a565b86831015620004c15784890151620004bd601f891682620003b1565b8355505b6001600288020188555050505b505050505050565b600082825260208201905092915050565b7f4552433230546f6b656e00000000000000000000000000000000000000000000600082015250565b60006200051f600a83620004d6565b91506200052c82620004e7565b602082019050919050565b7f546f6b656e000000000000000000000000000000000000000000000000000000600082015250565b60006200056f600583620004d6565b91506200057c8262000537565b602082019050919050565b60006040820190508181036000830152620005a28162000510565b90508181036020830152620005b78162000560565b9050919050565b61320f80620005ce6000396000f3fe60806040526004361061014b5760003560e01c8063928671f1116100b6578063c27a399d1161006f578063c27a399d14610490578063c87b56dd146104bb578063d01af8bc146104f8578063e865af0414610537578063e985e9c514610553578063f7746e36146105905761014b565b8063928671f11461038057806395d89b41146103ab5780639bc63147146103d65780639fa017f414610401578063a22cb4651461043e578063b88d4fde146104675761014b565b806323b872dd1161010857806323b872dd146102725780633a7bb4b21461029b57806342842e0e146102b2578063481c6a75146102db5780636352211e1461030657806370a08231146103435761014b565b806301ffc9a71461015057806306fdde031461018d578063081812fc146101b8578063095ea7b3146101f557806317f956e01461021e5780631f7b6d3214610247575b600080fd5b34801561015c57600080fd5b5061017760048036038101906101729190612413565b6105cf565b604051610184919061245b565b60405180910390f35b34801561019957600080fd5b506101a26106b1565b6040516101af9190612506565b60405180910390f35b3480156101c457600080fd5b506101df60048036038101906101da919061255e565b610743565b6040516101ec91906125cc565b60405180910390f35b34801561020157600080fd5b5061021c60048036038101906102179190612613565b61075f565b005b34801561022a57600080fd5b506102456004803603810190610240919061255e565b610775565b005b34801561025357600080fd5b5061025c61088e565b6040516102699190612662565b60405180910390f35b34801561027e57600080fd5b506102996004803603810190610294919061267d565b610894565b005b3480156102a757600080fd5b506102b0610996565b005b3480156102be57600080fd5b506102d960048036038101906102d4919061267d565b610b1c565b005b3480156102e757600080fd5b506102f0610b3c565b6040516102fd91906125cc565b60405180910390f35b34801561031257600080fd5b5061032d6004803603810190610328919061255e565b610b62565b60405161033a91906125cc565b60405180910390f35b34801561034f57600080fd5b5061036a600480360381019061036591906126d0565b610b74565b6040516103779190612662565b60405180910390f35b34801561038c57600080fd5b50610395610c2e565b6040516103a2919061275c565b60405180910390f35b3480156103b757600080fd5b506103c0610c54565b6040516103cd9190612506565b60405180910390f35b3480156103e257600080fd5b506103eb610ce6565b6040516103f89190612886565b60405180910390f35b34801561040d57600080fd5b5061042860048036038101906104239190612613565b610fa0565b6040516104359190612662565b60405180910390f35b34801561044a57600080fd5b50610465600480360381019061046091906128d4565b610fd1565b005b34801561047357600080fd5b5061048e60048036038101906104899190612a49565b610fe7565b005b34801561049c57600080fd5b506104a5611004565b6040516104b29190612b7b565b60405180910390f35b3480156104c757600080fd5b506104e260048036038101906104dd919061255e565b611099565b6040516104ef9190612506565b60405180910390f35b34801561050457600080fd5b5061051f600480360381019061051a919061255e565b611102565b60405161052e93929190612b9d565b60405180910390f35b610551600480360381019061054c9190612bd4565b61117a565b005b34801561055f57600080fd5b5061057a60048036038101906105759190612c14565b61151b565b604051610587919061245b565b60405180910390f35b34801561059c57600080fd5b506105b760048036038101906105b2919061255e565b6115af565b6040516105c693929190612b9d565b60405180910390f35b60007f80ac58cd000000000000000000000000000000000000000000000000000000007bffffffffffffffffffffffffffffffffffffffffffffffffffffffff1916827bffffffffffffffffffffffffffffffffffffffffffffffffffffffff1916148061069a57507f5b5e139f000000000000000000000000000000000000000000000000000000007bffffffffffffffffffffffffffffffffffffffffffffffffffffffff1916827bffffffffffffffffffffffffffffffffffffffffffffffffffffffff1916145b806106aa57506106a982611619565b5b9050919050565b6060600080546106c090612c83565b80601f01602080910402602001604051908101604052809291908181526020018280546106ec90612c83565b80156107395780601f1061070e57610100808354040283529160200191610739565b820191906000526020600020905b81548152906001019060200180831161071c57829003601f168201915b5050505050905090565b600061074e82611683565b506107588261170b565b9050919050565b610771828261076c611748565b611750565b5050565b3373ffffffffffffffffffffffffffffffffffffffff166009600083815260200190815260200160002060010160009054906101000a900473ffffffffffffffffffffffffffffffffffffffff1673ffffffffffffffffffffffffffffffffffffffff1614610819576040517f08c379a000000000000000000000000000000000000000000000000000000000815260040161081090612d00565b60405180910390fd5b60006009600083815260200190815260200160002060010160006101000a81548173ffffffffffffffffffffffffffffffffffffffff021916908373ffffffffffffffffffffffffffffffffffffffff1602179055506000600960008381526020019081526020016000206002018190555050565b60075481565b600073ffffffffffffffffffffffffffffffffffffffff168273ffffffffffffffffffffffffffffffffffffffff16036109065760006040517f64a0ae920000000000000000000000000000000000000000000000000000000081526004016108fd91906125cc565b60405180910390fd5b600061091a8383610915611748565b611762565b90508373ffffffffffffffffffffffffffffffffffffffff168173ffffffffffffffffffffffffffffffffffffffff1614610990578382826040517f64283d7b00000000000000000000000000000000000000000000000000000000815260040161098793929190612d20565b60405180910390fd5b50505050565b600060075490506109a7338261197c565b60405180606001604052803373ffffffffffffffffffffffffffffffffffffffff168152602001600073ffffffffffffffffffffffffffffffffffffffff16815260200160008152506009600083815260200190815260200160002060008201518160000160006101000a81548173ffffffffffffffffffffffffffffffffffffffff021916908373ffffffffffffffffffffffffffffffffffffffff16021790555060208201518160010160006101000a81548173ffffffffffffffffffffffffffffffffffffffff021916908373ffffffffffffffffffffffffffffffffffffffff16021790555060408201518160020155905050600a60003373ffffffffffffffffffffffffffffffffffffffff1673ffffffffffffffffffffffffffffffffffffffff1681526020019081526020016000208190806001815401808255809150506001900390600052602060002001600090919091909150556001600754610b139190612d86565b60078190555050565b610b3783838360405180602001604052806000815250610fe7565b505050565b600660009054906101000a900473ffffffffffffffffffffffffffffffffffffffff1681565b6000610b6d82611683565b9050919050565b60008073ffffffffffffffffffffffffffffffffffffffff168273ffffffffffffffffffffffffffffffffffffffff1603610be75760006040517f89c62b64000000000000000000000000000000000000000000000000000000008152600401610bde91906125cc565b60405180910390fd5b600360008373ffffffffffffffffffffffffffffffffffffffff1673ffffffffffffffffffffffffffffffffffffffff168152602001908152602001600020549050919050565b600860009054906101000a900473ffffffffffffffffffffffffffffffffffffffff1681565b606060018054610c6390612c83565b80601f0160208091040260200160405190810160405280929190818152602001828054610c8f90612c83565b8015610cdc5780601f10610cb157610100808354040283529160200191610cdc565b820191906000526020600020905b815481529060010190602001808311610cbf57829003601f168201915b5050505050905090565b606060008060075467ffffffffffffffff811115610d0757610d0661291e565b5b604051908082528060200260200182016040528015610d355781602001602082028036833780820191505090505b50905060005b600754811015610e1357600073ffffffffffffffffffffffffffffffffffffffff166009600083815260200190815260200160002060010160009054906101000a900473ffffffffffffffffffffffffffffffffffffffff1673ffffffffffffffffffffffffffffffffffffffff161480610dcb5750426009600083815260200190815260200160002060020154105b15610e005780828481518110610de457610de3612dba565b5b602002602001018181525050600183610dfd9190612d86565b92505b8080610e0b90612de9565b915050610d3b565b5060008267ffffffffffffffff811115610e3057610e2f61291e565b5b604051908082528060200260200182016040528015610e6957816020015b610e5661235a565b815260200190600190039081610e4e5790505b50905060005b83811015610f965760096000848381518110610e8e57610e8d612dba565b5b602002602001015181526020019081526020016000206040518060600160405290816000820160009054906101000a900473ffffffffffffffffffffffffffffffffffffffff1673ffffffffffffffffffffffffffffffffffffffff1673ffffffffffffffffffffffffffffffffffffffff1681526020016001820160009054906101000a900473ffffffffffffffffffffffffffffffffffffffff1673ffffffffffffffffffffffffffffffffffffffff1673ffffffffffffffffffffffffffffffffffffffff168152602001600282015481525050828281518110610f7857610f77612dba565b5b60200260200101819052508080610f8e90612de9565b915050610e6f565b5080935050505090565b600a6020528160005260406000208181548110610fbc57600080fd5b90600052602060002001600091509150505481565b610fe3610fdc611748565b8383611a75565b5050565b610ff2848484610894565b610ffe84848484611be4565b50505050565b6060600a60003373ffffffffffffffffffffffffffffffffffffffff1673ffffffffffffffffffffffffffffffffffffffff16815260200190815260200160002080548060200260200160405190810160405280929190818152602001828054801561108f57602002820191906000526020600020905b81548152602001906001019080831161107b575b5050505050905090565b60606110a482611683565b5060006110af611d9b565b905060008151116110cf57604051806020016040528060008152506110fa565b806110d984611db2565b6040516020016110ea929190612e6d565b6040516020818303038152906040525b915050919050565b6000806000806009600086815260200190815260200160002090508060000160009054906101000a900473ffffffffffffffffffffffffffffffffffffffff168160010160009054906101000a900473ffffffffffffffffffffffffffffffffffffffff168260020154935093509350509193909250565b6000600960008481526020019081526020016000209050600073ffffffffffffffffffffffffffffffffffffffff168160000160009054906101000a900473ffffffffffffffffffffffffffffffffffffffff1673ffffffffffffffffffffffffffffffffffffffff1603611224576040517f08c379a000000000000000000000000000000000000000000000000000000000815260040161121b90612edd565b60405180910390fd5b42816002015410806112865750600073ffffffffffffffffffffffffffffffffffffffff168160010160009054906101000a900473ffffffffffffffffffffffffffffffffffffffff1673ffffffffffffffffffffffffffffffffffffffff16145b6112c5576040517f08c379a00000000000000000000000000000000000000000000000000000000081526004016112bc90612f49565b60405180910390fd5b338160010160006101000a81548173ffffffffffffffffffffffffffffffffffffffff021916908373ffffffffffffffffffffffffffffffffffffffff16021790555081426113149190612d86565b8160020181905550600082905080600860009054906101000a900473ffffffffffffffffffffffffffffffffffffffff1673ffffffffffffffffffffffffffffffffffffffff166370a08231336040518263ffffffff1660e01b815260040161137d91906125cc565b602060405180830381865afa15801561139a573d6000803e3d6000fd5b505050506040513d601f19601f820116820180604052508101906113be9190612f7e565b10156113ff576040517f08c379a00000000000000000000000000000000000000000000000000000000081526004016113f690612ff7565b60405180910390fd5b600860009054906101000a900473ffffffffffffffffffffffffffffffffffffffff1673ffffffffffffffffffffffffffffffffffffffff166323b872dd336009600088815260200190815260200160002060000160009054906101000a900473ffffffffffffffffffffffffffffffffffffffff16846040518463ffffffff1660e01b815260040161149493929190612b9d565b6020604051808303816000875af11580156114b3573d6000803e3d6000fd5b505050506040513d601f19601f820116820180604052508101906114d7919061302c565b507f8879d78706834dc00d82232992f71250fab6a1f70b08260968253950083d88cd8433428660405161150d9493929190613059565b60405180910390a150505050565b6000600560008473ffffffffffffffffffffffffffffffffffffffff1673ffffffffffffffffffffffffffffffffffffffff16815260200190815260200160002060008373ffffffffffffffffffffffffffffffffffffffff1673ffffffffffffffffffffffffffffffffffffffff16815260200190815260200160002060009054906101000a900460ff16905092915050565b60096020528060005260406000206000915090508060000160009054906101000a900473ffffffffffffffffffffffffffffffffffffffff16908060010160009054906101000a900473ffffffffffffffffffffffffffffffffffffffff16908060020154905083565b60007f01ffc9a7000000000000000000000000000000000000000000000000000000007bffffffffffffffffffffffffffffffffffffffffffffffffffffffff1916827bffffffffffffffffffffffffffffffffffffffffffffffffffffffff1916149050919050565b60008061168f83611e80565b9050600073ffffffffffffffffffffffffffffffffffffffff168173ffffffffffffffffffffffffffffffffffffffff160361170257826040517f7e2732890000000000000000000000000000000000000000000000000000000081526004016116f99190612662565b60405180910390fd5b80915050919050565b60006004600083815260200190815260200160002060009054906101000a900473ffffffffffffffffffffffffffffffffffffffff169050919050565b600033905090565b61175d8383836001611ebd565b505050565b60008061176e84611e80565b9050600073ffffffffffffffffffffffffffffffffffffffff168373ffffffffffffffffffffffffffffffffffffffff16146117b0576117af818486612082565b5b600073ffffffffffffffffffffffffffffffffffffffff168173ffffffffffffffffffffffffffffffffffffffff1614611841576117f2600085600080611ebd565b6001600360008373ffffffffffffffffffffffffffffffffffffffff1673ffffffffffffffffffffffffffffffffffffffff168152602001908152602001600020600082825403925050819055505b600073ffffffffffffffffffffffffffffffffffffffff168573ffffffffffffffffffffffffffffffffffffffff16146118c4576001600360008773ffffffffffffffffffffffffffffffffffffffff1673ffffffffffffffffffffffffffffffffffffffff168152602001908152602001600020600082825401925050819055505b846002600086815260200190815260200160002060006101000a81548173ffffffffffffffffffffffffffffffffffffffff021916908373ffffffffffffffffffffffffffffffffffffffff160217905550838573ffffffffffffffffffffffffffffffffffffffff168273ffffffffffffffffffffffffffffffffffffffff167fddf252ad1be2c89b69c2b068fc378daa952ba7f163c4a11628f55a4df523b3ef60405160405180910390a4809150509392505050565b600073ffffffffffffffffffffffffffffffffffffffff168273ffffffffffffffffffffffffffffffffffffffff16036119ee5760006040517f64a0ae920000000000000000000000000000000000000000000000000000000081526004016119e591906125cc565b60405180910390fd5b60006119fc83836000611762565b9050600073ffffffffffffffffffffffffffffffffffffffff168173ffffffffffffffffffffffffffffffffffffffff1614611a705760006040517f73c6ac6e000000000000000000000000000000000000000000000000000000008152600401611a6791906125cc565b60405180910390fd5b505050565b600073ffffffffffffffffffffffffffffffffffffffff168273ffffffffffffffffffffffffffffffffffffffff1603611ae657816040517f5b08ba18000000000000000000000000000000000000000000000000000000008152600401611add91906125cc565b60405180910390fd5b80600560008573ffffffffffffffffffffffffffffffffffffffff1673ffffffffffffffffffffffffffffffffffffffff16815260200190815260200160002060008473ffffffffffffffffffffffffffffffffffffffff1673ffffffffffffffffffffffffffffffffffffffff16815260200190815260200160002060006101000a81548160ff0219169083151502179055508173ffffffffffffffffffffffffffffffffffffffff168373ffffffffffffffffffffffffffffffffffffffff167f17307eab39ab6107e8899845ad3d59bd9653f200f220920489ca2b5937696c3183604051611bd7919061245b565b60405180910390a3505050565b60008373ffffffffffffffffffffffffffffffffffffffff163b1115611d95578273ffffffffffffffffffffffffffffffffffffffff1663150b7a02611c28611748565b8685856040518563ffffffff1660e01b8152600401611c4a94939291906130f3565b6020604051808303816000875af1925050508015611c8657506040513d601f19601f82011682018060405250810190611c839190613154565b60015b611d0a573d8060008114611cb6576040519150601f19603f3d011682016040523d82523d6000602084013e611cbb565b606091505b506000815103611d0257836040517f64a0ae92000000000000000000000000000000000000000000000000000000008152600401611cf991906125cc565b60405180910390fd5b805181602001fd5b63150b7a0260e01b7bffffffffffffffffffffffffffffffffffffffffffffffffffffffff1916817bffffffffffffffffffffffffffffffffffffffffffffffffffffffff191614611d9357836040517f64a0ae92000000000000000000000000000000000000000000000000000000008152600401611d8a91906125cc565b60405180910390fd5b505b50505050565b606060405180602001604052806000815250905090565b606060006001611dc184612146565b01905060008167ffffffffffffffff811115611de057611ddf61291e565b5b6040519080825280601f01601f191660200182016040528015611e125781602001600182028036833780820191505090505b509050600082602001820190505b600115611e75578080600190039150507f3031323334353637383961626364656600000000000000000000000000000000600a86061a8153600a8581611e6957611e68613181565b5b04945060008503611e20575b819350505050919050565b60006002600083815260200190815260200160002060009054906101000a900473ffffffffffffffffffffffffffffffffffffffff169050919050565b8080611ef65750600073ffffffffffffffffffffffffffffffffffffffff168273ffffffffffffffffffffffffffffffffffffffff1614155b1561202a576000611f0684611683565b9050600073ffffffffffffffffffffffffffffffffffffffff168373ffffffffffffffffffffffffffffffffffffffff1614158015611f7157508273ffffffffffffffffffffffffffffffffffffffff168173ffffffffffffffffffffffffffffffffffffffff1614155b8015611f845750611f82818461151b565b155b15611fc657826040517fa9fbf51f000000000000000000000000000000000000000000000000000000008152600401611fbd91906125cc565b60405180910390fd5b811561202857838573ffffffffffffffffffffffffffffffffffffffff168273ffffffffffffffffffffffffffffffffffffffff167f8c5be1e5ebec7d5bd14f71427d1e84f3dd0314c0f7b2291e5b200ac8c7c3b92560405160405180910390a45b505b836004600085815260200190815260200160002060006101000a81548173ffffffffffffffffffffffffffffffffffffffff021916908373ffffffffffffffffffffffffffffffffffffffff16021790555050505050565b61208d838383612299565b61214157600073ffffffffffffffffffffffffffffffffffffffff168373ffffffffffffffffffffffffffffffffffffffff160361210257806040517f7e2732890000000000000000000000000000000000000000000000000000000081526004016120f99190612662565b60405180910390fd5b81816040517f177e802f0000000000000000000000000000000000000000000000000000000081526004016121389291906131b0565b60405180910390fd5b505050565b600080600090507a184f03e93ff9f4daa797ed6e38ed64bf6a1f01000000000000000083106121a4577a184f03e93ff9f4daa797ed6e38ed64bf6a1f010000000000000000838161219a57612199613181565b5b0492506040810190505b6d04ee2d6d415b85acef810000000083106121e1576d04ee2d6d415b85acef810000000083816121d7576121d6613181565b5b0492506020810190505b662386f26fc10000831061221057662386f26fc10000838161220657612205613181565b5b0492506010810190505b6305f5e1008310612239576305f5e100838161222f5761222e613181565b5b0492506008810190505b612710831061225e57612710838161225457612253613181565b5b0492506004810190505b60648310612281576064838161227757612276613181565b5b0492506002810190505b600a8310612290576001810190505b80915050919050565b60008073ffffffffffffffffffffffffffffffffffffffff168373ffffffffffffffffffffffffffffffffffffffff161415801561235157508273ffffffffffffffffffffffffffffffffffffffff168473ffffffffffffffffffffffffffffffffffffffff1614806123125750612311848461151b565b5b8061235057508273ffffffffffffffffffffffffffffffffffffffff166123388361170b565b73ffffffffffffffffffffffffffffffffffffffff16145b5b90509392505050565b6040518060600160405280600073ffffffffffffffffffffffffffffffffffffffff168152602001600073ffffffffffffffffffffffffffffffffffffffff168152602001600081525090565b6000604051905090565b600080fd5b600080fd5b60007fffffffff0000000000000000000000000000000000000000000000000000000082169050919050565b6123f0816123bb565b81146123fb57600080fd5b50565b60008135905061240d816123e7565b92915050565b600060208284031215612429576124286123b1565b5b6000612437848285016123fe565b91505092915050565b60008115159050919050565b61245581612440565b82525050565b6000602082019050612470600083018461244c565b92915050565b600081519050919050565b600082825260208201905092915050565b60005b838110156124b0578082015181840152602081019050612495565b60008484015250505050565b6000601f19601f8301169050919050565b60006124d882612476565b6124e28185612481565b93506124f2818560208601612492565b6124fb816124bc565b840191505092915050565b6000602082019050818103600083015261252081846124cd565b905092915050565b6000819050919050565b61253b81612528565b811461254657600080fd5b50565b60008135905061255881612532565b92915050565b600060208284031215612574576125736123b1565b5b600061258284828501612549565b91505092915050565b600073ffffffffffffffffffffffffffffffffffffffff82169050919050565b60006125b68261258b565b9050919050565b6125c6816125ab565b82525050565b60006020820190506125e160008301846125bd565b92915050565b6125f0816125ab565b81146125fb57600080fd5b50565b60008135905061260d816125e7565b92915050565b6000806040838503121561262a576126296123b1565b5b6000612638858286016125fe565b925050602061264985828601612549565b9150509250929050565b61265c81612528565b82525050565b60006020820190506126776000830184612653565b92915050565b600080600060608486031215612696576126956123b1565b5b60006126a4868287016125fe565b93505060206126b5868287016125fe565b92505060406126c686828701612549565b9150509250925092565b6000602082840312156126e6576126e56123b1565b5b60006126f4848285016125fe565b91505092915050565b6000819050919050565b600061272261271d6127188461258b565b6126fd565b61258b565b9050919050565b600061273482612707565b9050919050565b600061274682612729565b9050919050565b6127568161273b565b82525050565b6000602082019050612771600083018461274d565b92915050565b600081519050919050565b600082825260208201905092915050565b6000819050602082019050919050565b6127ac816125ab565b82525050565b6127bb81612528565b82525050565b6060820160008201516127d760008501826127a3565b5060208201516127ea60208501826127a3565b5060408201516127fd60408501826127b2565b50505050565b600061280f83836127c1565b60608301905092915050565b6000602082019050919050565b600061283382612777565b61283d8185612782565b935061284883612793565b8060005b838110156128795781516128608882612803565b975061286b8361281b565b92505060018101905061284c565b5085935050505092915050565b600060208201905081810360008301526128a08184612828565b905092915050565b6128b181612440565b81146128bc57600080fd5b50565b6000813590506128ce816128a8565b92915050565b600080604083850312156128eb576128ea6123b1565b5b60006128f9858286016125fe565b925050602061290a858286016128bf565b9150509250929050565b600080fd5b600080fd5b7f4e487b7100000000000000000000000000000000000000000000000000000000600052604160045260246000fd5b612956826124bc565b810181811067ffffffffffffffff821117156129755761297461291e565b5b80604052505050565b60006129886123a7565b9050612994828261294d565b919050565b600067ffffffffffffffff8211156129b4576129b361291e565b5b6129bd826124bc565b9050602081019050919050565b82818337600083830152505050565b60006129ec6129e784612999565b61297e565b905082815260208101848484011115612a0857612a07612919565b5b612a138482856129ca565b509392505050565b600082601f830112612a3057612a2f612914565b5b8135612a408482602086016129d9565b91505092915050565b60008060008060808587031215612a6357612a626123b1565b5b6000612a71878288016125fe565b9450506020612a82878288016125fe565b9350506040612a9387828801612549565b925050606085013567ffffffffffffffff811115612ab457612ab36123b6565b5b612ac087828801612a1b565b91505092959194509250565b600081519050919050565b600082825260208201905092915050565b6000819050602082019050919050565b6000612b0483836127b2565b60208301905092915050565b6000602082019050919050565b6000612b2882612acc565b612b328185612ad7565b9350612b3d83612ae8565b8060005b83811015612b6e578151612b558882612af8565b9750612b6083612b10565b925050600181019050612b41565b5085935050505092915050565b60006020820190508181036000830152612b958184612b1d565b905092915050565b6000606082019050612bb260008301866125bd565b612bbf60208301856125bd565b612bcc6040830184612653565b949350505050565b60008060408385031215612beb57612bea6123b1565b5b6000612bf985828601612549565b9250506020612c0a85828601612549565b9150509250929050565b60008060408385031215612c2b57612c2a6123b1565b5b6000612c39858286016125fe565b9250506020612c4a858286016125fe565b9150509250929050565b7f4e487b7100000000000000000000000000000000000000000000000000000000600052602260045260246000fd5b60006002820490506001821680612c9b57607f821691505b602082108103612cae57612cad612c54565b5b50919050565b7f596f7520617265206e6f742074686520626f72726f7765722100000000000000600082015250565b6000612cea601983612481565b9150612cf582612cb4565b602082019050919050565b60006020820190508181036000830152612d1981612cdd565b9050919050565b6000606082019050612d3560008301866125bd565b612d426020830185612653565b612d4f60408301846125bd565b949350505050565b7f4e487b7100000000000000000000000000000000000000000000000000000000600052601160045260246000fd5b6000612d9182612528565b9150612d9c83612528565b9250828201905080821115612db457612db3612d57565b5b92915050565b7f4e487b7100000000000000000000000000000000000000000000000000000000600052603260045260246000fd5b6000612df482612528565b91507fffffffffffffffffffffffffffffffffffffffffffffffffffffffffffffffff8203612e2657612e25612d57565b5b600182019050919050565b600081905092915050565b6000612e4782612476565b612e518185612e31565b9350612e61818560208601612492565b80840191505092915050565b6000612e798285612e3c565b9150612e858284612e3c565b91508190509392505050565b7f43617220646f6573206e6f742065786973740000000000000000000000000000600082015250565b6000612ec7601283612481565b9150612ed282612e91565b602082019050919050565b60006020820190508181036000830152612ef681612eba565b9050919050565b7f43617220697320616c726561647920626f72726f776564000000000000000000600082015250565b6000612f33601783612481565b9150612f3e82612efd565b602082019050919050565b60006020820190508181036000830152612f6281612f26565b9050919050565b600081519050612f7881612532565b92915050565b600060208284031215612f9457612f936123b1565b5b6000612fa284828501612f69565b91505092915050565b7f4e6f7420656e6f756768206d6f6e657921000000000000000000000000000000600082015250565b6000612fe1601183612481565b9150612fec82612fab565b602082019050919050565b6000602082019050818103600083015261301081612fd4565b9050919050565b600081519050613026816128a8565b92915050565b600060208284031215613042576130416123b1565b5b600061305084828501613017565b91505092915050565b600060808201905061306e6000830187612653565b61307b60208301866125bd565b6130886040830185612653565b6130956060830184612653565b95945050505050565b600081519050919050565b600082825260208201905092915050565b60006130c58261309e565b6130cf81856130a9565b93506130df818560208601612492565b6130e8816124bc565b840191505092915050565b600060808201905061310860008301876125bd565b61311560208301866125bd565b6131226040830185612653565b818103606083015261313481846130ba565b905095945050505050565b60008151905061314e816123e7565b92915050565b60006020828403121561316a576131696123b1565b5b60006131788482850161313f565b91505092915050565b7f4e487b7100000000000000000000000000000000000000000000000000000000600052601260045260246000fd5b60006040820190506131c560008301856125bd565b6131d26020830184612653565b939250505056fea2646970667358221220200fb7c9cd2f80ef50c47721338d1448dd161b12612b4b86c5f4e8ea960dbd8d64736f6c6343000814003360806040523480156200001157600080fd5b506040516200161c3803806200161c8339818101604052810190620000379190620001fa565b818181600390816200004a9190620004ca565b5080600490816200005c9190620004ca565b5050505050620005b1565b6000604051905090565b600080fd5b600080fd5b600080fd5b600080fd5b6000601f19601f8301169050919050565b7f4e487b7100000000000000000000000000000000000000000000000000000000600052604160045260246000fd5b620000d08262000085565b810181811067ffffffffffffffff82111715620000f257620000f162000096565b5b80604052505050565b60006200010762000067565b9050620001158282620000c5565b919050565b600067ffffffffffffffff82111562000138576200013762000096565b5b620001438262000085565b9050602081019050919050565b60005b838110156200017057808201518184015260208101905062000153565b60008484015250505050565b6000620001936200018d846200011a565b620000fb565b905082815260208101848484011115620001b257620001b162000080565b5b620001bf84828562000150565b509392505050565b600082601f830112620001df57620001de6200007b565b5b8151620001f18482602086016200017c565b91505092915050565b6000806040838503121562000214576200021362000071565b5b600083015167ffffffffffffffff81111562000235576200023462000076565b5b6200024385828601620001c7565b925050602083015167ffffffffffffffff81111562000267576200026662000076565b5b6200027585828601620001c7565b9150509250929050565b600081519050919050565b7f4e487b7100000000000000000000000000000000000000000000000000000000600052602260045260246000fd5b60006002820490506001821680620002d257607f821691505b602082108103620002e857620002e76200028a565b5b50919050565b60008190508160005260206000209050919050565b60006020601f8301049050919050565b600082821b905092915050565b600060088302620003527fffffffffffffffffffffffffffffffffffffffffffffffffffffffffffffffff8262000313565b6200035e868362000313565b95508019841693508086168417925050509392505050565b6000819050919050565b6000819050919050565b6000620003ab620003a56200039f8462000376565b62000380565b62000376565b9050919050565b6000819050919050565b620003c7836200038a565b620003df620003d682620003b2565b84845462000320565b825550505050565b600090565b620003f6620003e7565b62000403818484620003bc565b505050565b5b818110156200042b576200041f600082620003ec565b60018101905062000409565b5050565b601f8211156200047a576200044481620002ee565b6200044f8462000303565b810160208510156200045f578190505b620004776200046e8562000303565b83018262000408565b50505b505050565b600082821c905092915050565b60006200049f600019846008026200047f565b1980831691505092915050565b6000620004ba83836200048c565b9150826002028217905092915050565b620004d5826200027f565b67ffffffffffffffff811115620004f157620004f062000096565b5b620004fd8254620002b9565b6200050a8282856200042f565b600060209050601f8311600181146200054257600084156200052d578287015190505b620005398582620004ac565b865550620005a9565b601f1984166200055286620002ee565b60005b828110156200057c5784890151825560018201915060208501945060208101905062000555565b868310156200059c578489015162000598601f8916826200048c565b8355505b6001600288020188555050505b505050505050565b61105b80620005c16000396000f3fe608060405234801561001057600080fd5b506004361061009e5760003560e01c806370a082311161006657806370a082311461015d57806395d89b411461018d578063a9059cbb146101ab578063dd62ed3e146101db578063ed6e67c71461020b5761009e565b806306fdde03146100a3578063095ea7b3146100c157806318160ddd146100f157806323b872dd1461010f578063313ce5671461013f575b600080fd5b6100ab610215565b6040516100b89190610c43565b60405180910390f35b6100db60048036038101906100d69190610cfe565b6102a7565b6040516100e89190610d59565b60405180910390f35b6100f96102ca565b6040516101069190610d83565b60405180910390f35b61012960048036038101906101249190610d9e565b6102d4565b6040516101369190610d59565b60405180910390f35b610147610303565b6040516101549190610e0d565b60405180910390f35b61017760048036038101906101729190610e28565b61030c565b6040516101849190610d83565b60405180910390f35b610195610354565b6040516101a29190610c43565b60405180910390f35b6101c560048036038101906101c09190610cfe565b6103e6565b6040516101d29190610d59565b60405180910390f35b6101f560048036038101906101f09190610e55565b610409565b6040516102029190610d83565b60405180910390f35b610213610490565b005b60606003805461022490610ec4565b80601f016020809104026020016040519081016040528092919081815260200182805461025090610ec4565b801561029d5780601f106102725761010080835404028352916020019161029d565b820191906000526020600020905b81548152906001019060200180831161028057829003601f168201915b5050505050905090565b6000806102b2610593565b90506102bf81858561059b565b600191505092915050565b6000600254905090565b6000806102df610593565b90506102ec8582856105ad565b6102f7858585610641565b60019150509392505050565b60006012905090565b60008060008373ffffffffffffffffffffffffffffffffffffffff1673ffffffffffffffffffffffffffffffffffffffff168152602001908152602001600020549050919050565b60606004805461036390610ec4565b80601f016020809104026020016040519081016040528092919081815260200182805461038f90610ec4565b80156103dc5780601f106103b1576101008083540402835291602001916103dc565b820191906000526020600020905b8154815290600101906020018083116103bf57829003601f168201915b5050505050905090565b6000806103f1610593565b90506103fe818585610641565b600191505092915050565b6000600160008473ffffffffffffffffffffffffffffffffffffffff1673ffffffffffffffffffffffffffffffffffffffff16815260200190815260200160002060008373ffffffffffffffffffffffffffffffffffffffff1673ffffffffffffffffffffffffffffffffffffffff16815260200190815260200160002054905092915050565b60001515600560003373ffffffffffffffffffffffffffffffffffffffff1673ffffffffffffffffffffffffffffffffffffffff16815260200190815260200160002060009054906101000a900460ff16151514610523576040517f08c379a000000000000000000000000000000000000000000000000000000000815260040161051a90610f41565b60405180910390fd5b610539336b033b2e3c9fd0803ce8000000610735565b6001600560003373ffffffffffffffffffffffffffffffffffffffff1673ffffffffffffffffffffffffffffffffffffffff16815260200190815260200160002060006101000a81548160ff021916908315150217905550565b600033905090565b6105a883838360016107b7565b505050565b60006105b98484610409565b90507fffffffffffffffffffffffffffffffffffffffffffffffffffffffffffffffff811461063b578181101561062b578281836040517ffb8f41b200000000000000000000000000000000000000000000000000000000815260040161062293929190610f70565b60405180910390fd5b61063a848484840360006107b7565b5b50505050565b600073ffffffffffffffffffffffffffffffffffffffff168373ffffffffffffffffffffffffffffffffffffffff16036106b35760006040517f96c6fd1e0000000000000000000000000000000000000000000000000000000081526004016106aa9190610fa7565b60405180910390fd5b600073ffffffffffffffffffffffffffffffffffffffff168273ffffffffffffffffffffffffffffffffffffffff16036107255760006040517fec442f0500000000000000000000000000000000000000000000000000000000815260040161071c9190610fa7565b60405180910390fd5b61073083838361098e565b505050565b600073ffffffffffffffffffffffffffffffffffffffff168273ffffffffffffffffffffffffffffffffffffffff16036107a75760006040517fec442f0500000000000000000000000000000000000000000000000000000000815260040161079e9190610fa7565b60405180910390fd5b6107b36000838361098e565b5050565b600073ffffffffffffffffffffffffffffffffffffffff168473ffffffffffffffffffffffffffffffffffffffff16036108295760006040517fe602df050000000000000000000000000000000000000000000000000000000081526004016108209190610fa7565b60405180910390fd5b600073ffffffffffffffffffffffffffffffffffffffff168373ffffffffffffffffffffffffffffffffffffffff160361089b5760006040517f94280d620000000000000000000000000000000000000000000000000000000081526004016108929190610fa7565b60405180910390fd5b81600160008673ffffffffffffffffffffffffffffffffffffffff1673ffffffffffffffffffffffffffffffffffffffff16815260200190815260200160002060008573ffffffffffffffffffffffffffffffffffffffff1673ffffffffffffffffffffffffffffffffffffffff168152602001908152602001600020819055508015610988578273ffffffffffffffffffffffffffffffffffffffff168473ffffffffffffffffffffffffffffffffffffffff167f8c5be1e5ebec7d5bd14f71427d1e84f3dd0314c0f7b2291e5b200ac8c7c3b9258460405161097f9190610d83565b60405180910390a35b50505050565b600073ffffffffffffffffffffffffffffffffffffffff168373ffffffffffffffffffffffffffffffffffffffff16036109e05780600260008282546109d49190610ff1565b92505081905550610ab3565b60008060008573ffffffffffffffffffffffffffffffffffffffff1673ffffffffffffffffffffffffffffffffffffffff16815260200190815260200160002054905081811015610a6c578381836040517fe450d38c000000000000000000000000000000000000000000000000000000008152600401610a6393929190610f70565b60405180910390fd5b8181036000808673ffffffffffffffffffffffffffffffffffffffff1673ffffffffffffffffffffffffffffffffffffffff16815260200190815260200160002081905550505b600073ffffffffffffffffffffffffffffffffffffffff168273ffffffffffffffffffffffffffffffffffffffff1603610afc5780600260008282540392505081905550610b49565b806000808473ffffffffffffffffffffffffffffffffffffffff1673ffffffffffffffffffffffffffffffffffffffff168152602001908152602001600020600082825401925050819055505b8173ffffffffffffffffffffffffffffffffffffffff168373ffffffffffffffffffffffffffffffffffffffff167fddf252ad1be2c89b69c2b068fc378daa952ba7f163c4a11628f55a4df523b3ef83604051610ba69190610d83565b60405180910390a3505050565b600081519050919050565b600082825260208201905092915050565b60005b83811015610bed578082015181840152602081019050610bd2565b60008484015250505050565b6000601f19601f8301169050919050565b6000610c1582610bb3565b610c1f8185610bbe565b9350610c2f818560208601610bcf565b610c3881610bf9565b840191505092915050565b60006020820190508181036000830152610c5d8184610c0a565b905092915050565b600080fd5b600073ffffffffffffffffffffffffffffffffffffffff82169050919050565b6000610c9582610c6a565b9050919050565b610ca581610c8a565b8114610cb057600080fd5b50565b600081359050610cc281610c9c565b92915050565b6000819050919050565b610cdb81610cc8565b8114610ce657600080fd5b50565b600081359050610cf881610cd2565b92915050565b60008060408385031215610d1557610d14610c65565b5b6000610d2385828601610cb3565b9250506020610d3485828601610ce9565b9150509250929050565b60008115159050919050565b610d5381610d3e565b82525050565b6000602082019050610d6e6000830184610d4a565b92915050565b610d7d81610cc8565b82525050565b6000602082019050610d986000830184610d74565b92915050565b600080600060608486031215610db757610db6610c65565b5b6000610dc586828701610cb3565b9350506020610dd686828701610cb3565b9250506040610de786828701610ce9565b9150509250925092565b600060ff82169050919050565b610e0781610df1565b82525050565b6000602082019050610e226000830184610dfe565b92915050565b600060208284031215610e3e57610e3d610c65565b5b6000610e4c84828501610cb3565b91505092915050565b60008060408385031215610e6c57610e6b610c65565b5b6000610e7a85828601610cb3565b9250506020610e8b85828601610cb3565b9150509250929050565b7f4e487b7100000000000000000000000000000000000000000000000000000000600052602260045260246000fd5b60006002820490506001821680610edc57607f821691505b602082108103610eef57610eee610e95565b5b50919050565b7f416c726561647920676976656e2e000000000000000000000000000000000000600082015250565b6000610f2b600e83610bbe565b9150610f3682610ef5565b602082019050919050565b60006020820190508181036000830152610f5a81610f1e565b9050919050565b610f6a81610c8a565b82525050565b6000606082019050610f856000830186610f61565b610f926020830185610d74565b610f9f6040830184610d74565b949350505050565b6000602082019050610fbc6000830184610f61565b92915050565b7f4e487b7100000000000000000000000000000000000000000000000000000000600052601160045260246000fd5b6000610ffc82610cc8565b915061100783610cc8565b925082820190508082111561101f5761101e610fc2565b5b9291505056fea2646970667358221220cd88abe75679cc7f96ad56e4c649bb0acaaafaab42e2a2bdc9cfebca0dd4534564736f6c63430008140033",
  "linkReferences": {},
  "deployedLinkReferences": {}
}